{
  "_format": "hh-sol-artifact-1",
  "contractName": "BlockchainTechFamilyNft",
  "sourceName": "contracts/BlockchainTechFamilyNft.sol",
  "abi": [
    {
      "anonymous": false,
      "inputs": [
        {
          "indexed": true,
          "internalType": "address",
          "name": "owner",
          "type": "address"
        },
        {
          "indexed": true,
          "internalType": "address",
          "name": "approved",
          "type": "address"
        },
        {
          "indexed": true,
          "internalType": "uint256",
          "name": "tokenId",
          "type": "uint256"
        }
      ],
      "name": "Approval",
      "type": "event"
    },
    {
      "anonymous": false,
      "inputs": [
        {
          "indexed": true,
          "internalType": "address",
          "name": "owner",
          "type": "address"
        },
        {
          "indexed": true,
          "internalType": "address",
          "name": "operator",
          "type": "address"
        },
        {
          "indexed": false,
          "internalType": "bool",
          "name": "approved",
          "type": "bool"
        }
      ],
      "name": "ApprovalForAll",
      "type": "event"
    },
    {
      "anonymous": false,
      "inputs": [
        {
          "indexed": false,
          "internalType": "uint8",
          "name": "version",
          "type": "uint8"
        }
      ],
      "name": "Initialized",
      "type": "event"
    },
    {
      "anonymous": false,
      "inputs": [
        {
          "indexed": true,
          "internalType": "address",
          "name": "previousOwner",
          "type": "address"
        },
        {
          "indexed": true,
          "internalType": "address",
          "name": "newOwner",
          "type": "address"
        }
      ],
      "name": "OwnershipTransferred",
      "type": "event"
    },
    {
      "anonymous": false,
      "inputs": [
        {
          "indexed": true,
          "internalType": "address",
          "name": "from",
          "type": "address"
        },
        {
          "indexed": true,
          "internalType": "address",
          "name": "to",
          "type": "address"
        },
        {
          "indexed": true,
          "internalType": "uint256",
          "name": "tokenId",
          "type": "uint256"
        }
      ],
      "name": "Transfer",
      "type": "event"
    },
    {
      "inputs": [
        {
          "internalType": "address",
          "name": "to",
          "type": "address"
        },
        {
          "internalType": "uint256",
          "name": "tokenId",
          "type": "uint256"
        }
      ],
      "name": "approve",
      "outputs": [],
      "stateMutability": "nonpayable",
      "type": "function"
    },
    {
      "inputs": [
        {
          "internalType": "address",
          "name": "owner",
          "type": "address"
        }
      ],
      "name": "balanceOf",
      "outputs": [
        {
          "internalType": "uint256",
          "name": "",
          "type": "uint256"
        }
      ],
      "stateMutability": "view",
      "type": "function"
    },
    {
      "inputs": [],
      "name": "baseURI",
      "outputs": [
        {
          "internalType": "string",
          "name": "",
          "type": "string"
        }
      ],
      "stateMutability": "view",
      "type": "function"
    },
    {
      "inputs": [],
      "name": "currentSupply",
      "outputs": [
        {
          "internalType": "uint256",
          "name": "",
          "type": "uint256"
        }
      ],
      "stateMutability": "view",
      "type": "function"
    },
    {
      "inputs": [
        {
          "internalType": "uint256",
          "name": "tokenId",
          "type": "uint256"
        }
      ],
      "name": "getApproved",
      "outputs": [
        {
          "internalType": "address",
          "name": "",
          "type": "address"
        }
      ],
      "stateMutability": "view",
      "type": "function"
    },
    {
      "inputs": [
        {
          "internalType": "string",
          "name": "baseUri_",
          "type": "string"
        },
        {
          "internalType": "string",
          "name": "name_",
          "type": "string"
        },
        {
          "internalType": "string",
          "name": "symbol_",
          "type": "string"
        }
      ],
      "name": "initialize",
      "outputs": [],
      "stateMutability": "nonpayable",
      "type": "function"
    },
    {
      "inputs": [
        {
          "internalType": "address",
          "name": "owner",
          "type": "address"
        },
        {
          "internalType": "address",
          "name": "operator",
          "type": "address"
        }
      ],
      "name": "isApprovedForAll",
      "outputs": [
        {
          "internalType": "bool",
          "name": "",
          "type": "bool"
        }
      ],
      "stateMutability": "view",
      "type": "function"
    },
    {
      "inputs": [
        {
          "internalType": "address",
          "name": "mintToAddress",
          "type": "address"
        }
      ],
      "name": "mint",
      "outputs": [],
      "stateMutability": "nonpayable",
      "type": "function"
    },
    {
      "inputs": [],
      "name": "name",
      "outputs": [
        {
          "internalType": "string",
          "name": "",
          "type": "string"
        }
      ],
      "stateMutability": "view",
      "type": "function"
    },
    {
      "inputs": [],
      "name": "owner",
      "outputs": [
        {
          "internalType": "address",
          "name": "",
          "type": "address"
        }
      ],
      "stateMutability": "view",
      "type": "function"
    },
    {
      "inputs": [
        {
          "internalType": "uint256",
          "name": "tokenId",
          "type": "uint256"
        }
      ],
      "name": "ownerOf",
      "outputs": [
        {
          "internalType": "address",
          "name": "",
          "type": "address"
        }
      ],
      "stateMutability": "view",
      "type": "function"
    },
    {
      "inputs": [],
      "name": "renounceOwnership",
      "outputs": [],
      "stateMutability": "nonpayable",
      "type": "function"
    },
    {
      "inputs": [
        {
          "internalType": "address",
          "name": "from",
          "type": "address"
        },
        {
          "internalType": "address",
          "name": "to",
          "type": "address"
        },
        {
          "internalType": "uint256",
          "name": "tokenId",
          "type": "uint256"
        }
      ],
      "name": "safeTransferFrom",
      "outputs": [],
      "stateMutability": "nonpayable",
      "type": "function"
    },
    {
      "inputs": [
        {
          "internalType": "address",
          "name": "from",
          "type": "address"
        },
        {
          "internalType": "address",
          "name": "to",
          "type": "address"
        },
        {
          "internalType": "uint256",
          "name": "tokenId",
          "type": "uint256"
        },
        {
          "internalType": "bytes",
          "name": "data",
          "type": "bytes"
        }
      ],
      "name": "safeTransferFrom",
      "outputs": [],
      "stateMutability": "nonpayable",
      "type": "function"
    },
    {
      "inputs": [
        {
          "internalType": "address",
          "name": "operator",
          "type": "address"
        },
        {
          "internalType": "bool",
          "name": "approved",
          "type": "bool"
        }
      ],
      "name": "setApprovalForAll",
      "outputs": [],
      "stateMutability": "nonpayable",
      "type": "function"
    },
    {
      "inputs": [
        {
          "internalType": "string",
          "name": "baseURI_",
          "type": "string"
        }
      ],
      "name": "setBaseURI",
      "outputs": [],
      "stateMutability": "nonpayable",
      "type": "function"
    },
    {
      "inputs": [
        {
          "internalType": "bytes4",
          "name": "interfaceId",
          "type": "bytes4"
        }
      ],
      "name": "supportsInterface",
      "outputs": [
        {
          "internalType": "bool",
          "name": "",
          "type": "bool"
        }
      ],
      "stateMutability": "view",
      "type": "function"
    },
    {
      "inputs": [],
      "name": "symbol",
      "outputs": [
        {
          "internalType": "string",
          "name": "",
          "type": "string"
        }
      ],
      "stateMutability": "view",
      "type": "function"
    },
    {
      "inputs": [
        {
          "internalType": "uint256",
          "name": "tokenId",
          "type": "uint256"
        }
      ],
      "name": "tokenURI",
      "outputs": [
        {
          "internalType": "string",
          "name": "",
          "type": "string"
        }
      ],
      "stateMutability": "view",
      "type": "function"
    },
    {
      "inputs": [
        {
          "internalType": "address",
          "name": "from",
          "type": "address"
        },
        {
          "internalType": "address",
          "name": "to",
          "type": "address"
        },
        {
          "internalType": "uint256",
          "name": "tokenId",
          "type": "uint256"
        }
      ],
      "name": "transferFrom",
      "outputs": [],
      "stateMutability": "nonpayable",
      "type": "function"
    },
    {
      "inputs": [
        {
          "internalType": "address",
          "name": "newOwner",
          "type": "address"
        }
      ],
      "name": "transferOwnership",
      "outputs": [],
      "stateMutability": "nonpayable",
      "type": "function"
    }
  ],
  "bytecode": "0x608060405234801561001057600080fd5b506137af806100206000396000f3fe608060405234801561001057600080fd5b50600436106101375760003560e01c806370a08231116100b8578063a22cb4651161007c578063a22cb46514610328578063a6487c5314610344578063b88d4fde14610360578063c87b56dd1461037c578063e985e9c5146103ac578063f2fde38b146103dc57610137565b806370a0823114610294578063715018a6146102c4578063771282f6146102ce5780638da5cb5b146102ec57806395d89b411461030a57610137565b806342842e0e116100ff57806342842e0e146101f257806355f804b31461020e5780636352211e1461022a5780636a6278421461025a5780636c0360eb1461027657610137565b806301ffc9a71461013c57806306fdde031461016c578063081812fc1461018a578063095ea7b3146101ba57806323b872dd146101d6575b600080fd5b6101566004803603810190610151919061227d565b6103f8565b60405161016391906122c5565b60405180910390f35b6101746104da565b6040516101819190612370565b60405180910390f35b6101a4600480360381019061019f91906123c8565b61056c565b6040516101b19190612436565b60405180910390f35b6101d460048036038101906101cf919061247d565b6105b2565b005b6101f060048036038101906101eb91906124bd565b6106c9565b005b61020c600480360381019061020791906124bd565b6107d8565b005b61022860048036038101906102239190612645565b6107f8565b005b610244600480360381019061023f91906123c8565b610813565b6040516102519190612436565b60405180910390f35b610274600480360381019061026f919061268e565b610899565b005b61027e6109a5565b60405161028b9190612370565b60405180910390f35b6102ae60048036038101906102a9919061268e565b610a33565b6040516102bb91906126ca565b60405180910390f35b6102cc610aea565b005b6102d6610afe565b6040516102e391906126ca565b60405180910390f35b6102f4610b04565b6040516103019190612436565b60405180910390f35b610312610b2e565b60405161031f9190612370565b60405180910390f35b610342600480360381019061033d9190612711565b610bc0565b005b61035e60048036038101906103599190612751565b610bd6565b005b61037a60048036038101906103759190612899565b610d31565b005b610396600480360381019061039191906123c8565b610e42565b6040516103a39190612370565b60405180910390f35b6103c660048036038101906103c1919061291c565b610eaa565b6040516103d391906122c5565b60405180910390f35b6103f660048036038101906103f1919061268e565b610f3e565b005b60007f80ac58cd000000000000000000000000000000000000000000000000000000007bffffffffffffffffffffffffffffffffffffffffffffffffffffffff1916827bffffffffffffffffffffffffffffffffffffffffffffffffffffffff191614806104c357507f5b5e139f000000000000000000000000000000000000000000000000000000007bffffffffffffffffffffffffffffffffffffffffffffffffffffffff1916827bffffffffffffffffffffffffffffffffffffffffffffffffffffffff1916145b806104d357506104d282610fc1565b5b9050919050565b6060606580546104e99061298b565b80601f01602080910402602001604051908101604052809291908181526020018280546105159061298b565b80156105625780601f1061053757610100808354040283529160200191610562565b820191906000526020600020905b81548152906001019060200180831161054557829003601f168201915b5050505050905090565b60006105778261102b565b6069600083815260200190815260200160002060009054906101000a900473ffffffffffffffffffffffffffffffffffffffff169050919050565b60006105bd82610813565b90508073ffffffffffffffffffffffffffffffffffffffff168373ffffffffffffffffffffffffffffffffffffffff160361062d576040517f08c379a000000000000000000000000000000000000000000000000000000000815260040161062490612a2e565b60405180910390fd5b8073ffffffffffffffffffffffffffffffffffffffff1661064c611076565b73ffffffffffffffffffffffffffffffffffffffff16148061067b575061067a81610675611076565b610eaa565b5b6106ba576040517f08c379a00000000000000000000000000000000000000000000000000000000081526004016106b190612ac0565b60405180910390fd5b6106c4838361107e565b505050565b81816106d3610b04565b73ffffffffffffffffffffffffffffffffffffffff163373ffffffffffffffffffffffffffffffffffffffff16148061077d575061070f610b04565b73ffffffffffffffffffffffffffffffffffffffff168273ffffffffffffffffffffffffffffffffffffffff1614801561077c57503373ffffffffffffffffffffffffffffffffffffffff1661076482610813565b73ffffffffffffffffffffffffffffffffffffffff16145b5b6107bc576040517f08c379a00000000000000000000000000000000000000000000000000000000081526004016107b390612b78565b60405180910390fd5b6107c7858585611137565b6107d18585611430565b5050505050565b6107f383838360405180602001604052806000815250610d31565b505050565b6108006114de565b8060ca908161080f9190612d44565b5050565b60008061081f8361155c565b9050600073ffffffffffffffffffffffffffffffffffffffff168173ffffffffffffffffffffffffffffffffffffffff1603610890576040517f08c379a000000000000000000000000000000000000000000000000000000000815260040161088790612e62565b60405180910390fd5b80915050919050565b6108a16114de565b600060cb60008373ffffffffffffffffffffffffffffffffffffffff1673ffffffffffffffffffffffffffffffffffffffff1681526020019081526020016000205414610923576040517f08c379a000000000000000000000000000000000000000000000000000000000815260040161091a90612ece565b60405180910390fd5b60cb60008273ffffffffffffffffffffffffffffffffffffffff1673ffffffffffffffffffffffffffffffffffffffff168152602001908152602001600020600081548092919061097390612f1d565b9190505550600060c954905060c9600081548092919061099290612f1d565b91905055506109a18282611599565b5050565b60ca80546109b29061298b565b80601f01602080910402602001604051908101604052809291908181526020018280546109de9061298b565b8015610a2b5780601f10610a0057610100808354040283529160200191610a2b565b820191906000526020600020905b815481529060010190602001808311610a0e57829003601f168201915b505050505081565b60008073ffffffffffffffffffffffffffffffffffffffff168273ffffffffffffffffffffffffffffffffffffffff1603610aa3576040517f08c379a0000000000000000000000000000000000000000000000000000000008152600401610a9a90612fd7565b60405180910390fd5b606860008373ffffffffffffffffffffffffffffffffffffffff1673ffffffffffffffffffffffffffffffffffffffff168152602001908152602001600020549050919050565b610af26114de565b610afc60006115b7565b565b60c95481565b6000609760009054906101000a900473ffffffffffffffffffffffffffffffffffffffff16905090565b606060668054610b3d9061298b565b80601f0160208091040260200160405190810160405280929190818152602001828054610b699061298b565b8015610bb65780601f10610b8b57610100808354040283529160200191610bb6565b820191906000526020600020905b815481529060010190602001808311610b9957829003601f168201915b5050505050905090565b610bd2610bcb611076565b838361167d565b5050565b60008060019054906101000a900460ff16159050808015610c075750600160008054906101000a900460ff1660ff16105b80610c345750610c16306117e9565b158015610c335750600160008054906101000a900460ff1660ff16145b5b610c73576040517f08c379a0000000000000000000000000000000000000000000000000000000008152600401610c6a90613069565b60405180910390fd5b60016000806101000a81548160ff021916908360ff1602179055508015610cb0576001600060016101000a81548160ff0219169083151502179055505b610cba838361180c565b610cc2611869565b8360ca9081610cd19190612d44565b508015610d2b5760008060016101000a81548160ff0219169083151502179055507f7f26b83ff96e1f2b6a682f133852f6798a09c465da95921460cefb38474024986001604051610d2291906130d1565b60405180910390a15b50505050565b8282610d3b610b04565b73ffffffffffffffffffffffffffffffffffffffff163373ffffffffffffffffffffffffffffffffffffffff161480610de55750610d77610b04565b73ffffffffffffffffffffffffffffffffffffffff168273ffffffffffffffffffffffffffffffffffffffff16148015610de457503373ffffffffffffffffffffffffffffffffffffffff16610dcc82610813565b73ffffffffffffffffffffffffffffffffffffffff16145b5b610e24576040517f08c379a0000000000000000000000000000000000000000000000000000000008152600401610e1b90612b78565b60405180910390fd5b610e30868686866118c2565b610e3a8686611430565b505050505050565b6060610e4d8261102b565b6000610e5761191e565b90506000815111610e775760405180602001604052806000815250610ea2565b80610e81846119b0565b604051602001610e92929190613128565b6040516020818303038152906040525b915050919050565b6000606a60008473ffffffffffffffffffffffffffffffffffffffff1673ffffffffffffffffffffffffffffffffffffffff16815260200190815260200160002060008373ffffffffffffffffffffffffffffffffffffffff1673ffffffffffffffffffffffffffffffffffffffff16815260200190815260200160002060009054906101000a900460ff16905092915050565b610f466114de565b600073ffffffffffffffffffffffffffffffffffffffff168173ffffffffffffffffffffffffffffffffffffffff1603610fb5576040517f08c379a0000000000000000000000000000000000000000000000000000000008152600401610fac906131be565b60405180910390fd5b610fbe816115b7565b50565b60007f01ffc9a7000000000000000000000000000000000000000000000000000000007bffffffffffffffffffffffffffffffffffffffffffffffffffffffff1916827bffffffffffffffffffffffffffffffffffffffffffffffffffffffff1916149050919050565b61103481611a7e565b611073576040517f08c379a000000000000000000000000000000000000000000000000000000000815260040161106a90612e62565b60405180910390fd5b50565b600033905090565b816069600083815260200190815260200160002060006101000a81548173ffffffffffffffffffffffffffffffffffffffff021916908373ffffffffffffffffffffffffffffffffffffffff160217905550808273ffffffffffffffffffffffffffffffffffffffff166110f183610813565b73ffffffffffffffffffffffffffffffffffffffff167f8c5be1e5ebec7d5bd14f71427d1e84f3dd0314c0f7b2291e5b200ac8c7c3b92560405160405180910390a45050565b8273ffffffffffffffffffffffffffffffffffffffff1661115782610813565b73ffffffffffffffffffffffffffffffffffffffff16146111ad576040517f08c379a00000000000000000000000000000000000000000000000000000000081526004016111a490613250565b60405180910390fd5b600073ffffffffffffffffffffffffffffffffffffffff168273ffffffffffffffffffffffffffffffffffffffff160361121c576040517f08c379a0000000000000000000000000000000000000000000000000000000008152600401611213906132e2565b60405180910390fd5b6112298383836001611abf565b8273ffffffffffffffffffffffffffffffffffffffff1661124982610813565b73ffffffffffffffffffffffffffffffffffffffff161461129f576040517f08c379a000000000000000000000000000000000000000000000000000000000815260040161129690613250565b60405180910390fd5b6069600082815260200190815260200160002060006101000a81549073ffffffffffffffffffffffffffffffffffffffff02191690556001606860008573ffffffffffffffffffffffffffffffffffffffff1673ffffffffffffffffffffffffffffffffffffffff168152602001908152602001600020600082825403925050819055506001606860008473ffffffffffffffffffffffffffffffffffffffff1673ffffffffffffffffffffffffffffffffffffffff16815260200190815260200160002060008282540192505081905550816067600083815260200190815260200160002060006101000a81548173ffffffffffffffffffffffffffffffffffffffff021916908373ffffffffffffffffffffffffffffffffffffffff160217905550808273ffffffffffffffffffffffffffffffffffffffff168473ffffffffffffffffffffffffffffffffffffffff167fddf252ad1be2c89b69c2b068fc378daa952ba7f163c4a11628f55a4df523b3ef60405160405180910390a461142b8383836001611be5565b505050565b60cb60008273ffffffffffffffffffffffffffffffffffffffff1673ffffffffffffffffffffffffffffffffffffffff168152602001908152602001600020600081548092919061148090612f1d565b919050555060cb60008373ffffffffffffffffffffffffffffffffffffffff1673ffffffffffffffffffffffffffffffffffffffff16815260200190815260200160002060008154809291906114d590613302565b91905055505050565b6114e6611076565b73ffffffffffffffffffffffffffffffffffffffff16611504610b04565b73ffffffffffffffffffffffffffffffffffffffff161461155a576040517f08c379a000000000000000000000000000000000000000000000000000000000815260040161155190613377565b60405180910390fd5b565b60006067600083815260200190815260200160002060009054906101000a900473ffffffffffffffffffffffffffffffffffffffff169050919050565b6115b3828260405180602001604052806000815250611beb565b5050565b6000609760009054906101000a900473ffffffffffffffffffffffffffffffffffffffff16905081609760006101000a81548173ffffffffffffffffffffffffffffffffffffffff021916908373ffffffffffffffffffffffffffffffffffffffff1602179055508173ffffffffffffffffffffffffffffffffffffffff168173ffffffffffffffffffffffffffffffffffffffff167f8be0079c531659141344cd1fd0a4f28419497f9722a3daafe3b4186f6b6457e060405160405180910390a35050565b8173ffffffffffffffffffffffffffffffffffffffff168373ffffffffffffffffffffffffffffffffffffffff16036116eb576040517f08c379a00000000000000000000000000000000000000000000000000000000081526004016116e2906133e3565b60405180910390fd5b80606a60008573ffffffffffffffffffffffffffffffffffffffff1673ffffffffffffffffffffffffffffffffffffffff16815260200190815260200160002060008473ffffffffffffffffffffffffffffffffffffffff1673ffffffffffffffffffffffffffffffffffffffff16815260200190815260200160002060006101000a81548160ff0219169083151502179055508173ffffffffffffffffffffffffffffffffffffffff168373ffffffffffffffffffffffffffffffffffffffff167f17307eab39ab6107e8899845ad3d59bd9653f200f220920489ca2b5937696c31836040516117dc91906122c5565b60405180910390a3505050565b6000808273ffffffffffffffffffffffffffffffffffffffff163b119050919050565b600060019054906101000a900460ff1661185b576040517f08c379a000000000000000000000000000000000000000000000000000000000815260040161185290613475565b60405180910390fd5b6118658282611c46565b5050565b600060019054906101000a900460ff166118b8576040517f08c379a00000000000000000000000000000000000000000000000000000000081526004016118af90613475565b60405180910390fd5b6118c0611cb9565b565b6118cd848484611137565b6118d984848484611d1a565b611918576040517f08c379a000000000000000000000000000000000000000000000000000000000815260040161190f90613507565b60405180910390fd5b50505050565b606060ca805461192d9061298b565b80601f01602080910402602001604051908101604052809291908181526020018280546119599061298b565b80156119a65780601f1061197b576101008083540402835291602001916119a6565b820191906000526020600020905b81548152906001019060200180831161198957829003601f168201915b5050505050905090565b6060600060016119bf84611ea1565b01905060008167ffffffffffffffff8111156119de576119dd61251a565b5b6040519080825280601f01601f191660200182016040528015611a105781602001600182028036833780820191505090505b509050600082602001820190505b600115611a73578080600190039150507f3031323334353637383961626364656600000000000000000000000000000000600a86061a8153600a8581611a6757611a66613527565b5b04945060008503611a1e575b819350505050919050565b60008073ffffffffffffffffffffffffffffffffffffffff16611aa08361155c565b73ffffffffffffffffffffffffffffffffffffffff1614159050919050565b6001811115611bdf57600073ffffffffffffffffffffffffffffffffffffffff168473ffffffffffffffffffffffffffffffffffffffff1614611b535780606860008673ffffffffffffffffffffffffffffffffffffffff1673ffffffffffffffffffffffffffffffffffffffff1681526020019081526020016000206000828254611b4b9190613556565b925050819055505b600073ffffffffffffffffffffffffffffffffffffffff168373ffffffffffffffffffffffffffffffffffffffff1614611bde5780606860008573ffffffffffffffffffffffffffffffffffffffff1673ffffffffffffffffffffffffffffffffffffffff1681526020019081526020016000206000828254611bd6919061358a565b925050819055505b5b50505050565b50505050565b611bf58383611ff4565b611c026000848484611d1a565b611c41576040517f08c379a0000000000000000000000000000000000000000000000000000000008152600401611c3890613507565b60405180910390fd5b505050565b600060019054906101000a900460ff16611c95576040517f08c379a0000000000000000000000000000000000000000000000000000000008152600401611c8c90613475565b60405180910390fd5b8160659081611ca49190612d44565b508060669081611cb49190612d44565b505050565b600060019054906101000a900460ff16611d08576040517f08c379a0000000000000000000000000000000000000000000000000000000008152600401611cff90613475565b60405180910390fd5b611d18611d13611076565b6115b7565b565b6000611d3b8473ffffffffffffffffffffffffffffffffffffffff166117e9565b15611e94578373ffffffffffffffffffffffffffffffffffffffff1663150b7a02611d64611076565b8786866040518563ffffffff1660e01b8152600401611d869493929190613613565b6020604051808303816000875af1925050508015611dc257506040513d601f19601f82011682018060405250810190611dbf9190613674565b60015b611e44573d8060008114611df2576040519150601f19603f3d011682016040523d82523d6000602084013e611df7565b606091505b506000815103611e3c576040517f08c379a0000000000000000000000000000000000000000000000000000000008152600401611e3390613507565b60405180910390fd5b805181602001fd5b63150b7a0260e01b7bffffffffffffffffffffffffffffffffffffffffffffffffffffffff1916817bffffffffffffffffffffffffffffffffffffffffffffffffffffffff191614915050611e99565b600190505b949350505050565b600080600090507a184f03e93ff9f4daa797ed6e38ed64bf6a1f0100000000000000008310611eff577a184f03e93ff9f4daa797ed6e38ed64bf6a1f0100000000000000008381611ef557611ef4613527565b5b0492506040810190505b6d04ee2d6d415b85acef81000000008310611f3c576d04ee2d6d415b85acef81000000008381611f3257611f31613527565b5b0492506020810190505b662386f26fc100008310611f6b57662386f26fc100008381611f6157611f60613527565b5b0492506010810190505b6305f5e1008310611f94576305f5e1008381611f8a57611f89613527565b5b0492506008810190505b6127108310611fb9576127108381611faf57611fae613527565b5b0492506004810190505b60648310611fdc5760648381611fd257611fd1613527565b5b0492506002810190505b600a8310611feb576001810190505b80915050919050565b600073ffffffffffffffffffffffffffffffffffffffff168273ffffffffffffffffffffffffffffffffffffffff1603612063576040517f08c379a000000000000000000000000000000000000000000000000000000000815260040161205a906136ed565b60405180910390fd5b61206c81611a7e565b156120ac576040517f08c379a00000000000000000000000000000000000000000000000000000000081526004016120a390613759565b60405180910390fd5b6120ba600083836001611abf565b6120c381611a7e565b15612103576040517f08c379a00000000000000000000000000000000000000000000000000000000081526004016120fa90613759565b60405180910390fd5b6001606860008473ffffffffffffffffffffffffffffffffffffffff1673ffffffffffffffffffffffffffffffffffffffff16815260200190815260200160002060008282540192505081905550816067600083815260200190815260200160002060006101000a81548173ffffffffffffffffffffffffffffffffffffffff021916908373ffffffffffffffffffffffffffffffffffffffff160217905550808273ffffffffffffffffffffffffffffffffffffffff16600073ffffffffffffffffffffffffffffffffffffffff167fddf252ad1be2c89b69c2b068fc378daa952ba7f163c4a11628f55a4df523b3ef60405160405180910390a461220d600083836001611be5565b5050565b6000604051905090565b600080fd5b600080fd5b60007fffffffff0000000000000000000000000000000000000000000000000000000082169050919050565b61225a81612225565b811461226557600080fd5b50565b60008135905061227781612251565b92915050565b6000602082840312156122935761229261221b565b5b60006122a184828501612268565b91505092915050565b60008115159050919050565b6122bf816122aa565b82525050565b60006020820190506122da60008301846122b6565b92915050565b600081519050919050565b600082825260208201905092915050565b60005b8381101561231a5780820151818401526020810190506122ff565b60008484015250505050565b6000601f19601f8301169050919050565b6000612342826122e0565b61234c81856122eb565b935061235c8185602086016122fc565b61236581612326565b840191505092915050565b6000602082019050818103600083015261238a8184612337565b905092915050565b6000819050919050565b6123a581612392565b81146123b057600080fd5b50565b6000813590506123c28161239c565b92915050565b6000602082840312156123de576123dd61221b565b5b60006123ec848285016123b3565b91505092915050565b600073ffffffffffffffffffffffffffffffffffffffff82169050919050565b6000612420826123f5565b9050919050565b61243081612415565b82525050565b600060208201905061244b6000830184612427565b92915050565b61245a81612415565b811461246557600080fd5b50565b60008135905061247781612451565b92915050565b600080604083850312156124945761249361221b565b5b60006124a285828601612468565b92505060206124b3858286016123b3565b9150509250929050565b6000806000606084860312156124d6576124d561221b565b5b60006124e486828701612468565b93505060206124f586828701612468565b9250506040612506868287016123b3565b9150509250925092565b600080fd5b600080fd5b7f4e487b7100000000000000000000000000000000000000000000000000000000600052604160045260246000fd5b61255282612326565b810181811067ffffffffffffffff821117156125715761257061251a565b5b80604052505050565b6000612584612211565b90506125908282612549565b919050565b600067ffffffffffffffff8211156125b0576125af61251a565b5b6125b982612326565b9050602081019050919050565b82818337600083830152505050565b60006125e86125e384612595565b61257a565b90508281526020810184848401111561260457612603612515565b5b61260f8482856125c6565b509392505050565b600082601f83011261262c5761262b612510565b5b813561263c8482602086016125d5565b91505092915050565b60006020828403121561265b5761265a61221b565b5b600082013567ffffffffffffffff81111561267957612678612220565b5b61268584828501612617565b91505092915050565b6000602082840312156126a4576126a361221b565b5b60006126b284828501612468565b91505092915050565b6126c481612392565b82525050565b60006020820190506126df60008301846126bb565b92915050565b6126ee816122aa565b81146126f957600080fd5b50565b60008135905061270b816126e5565b92915050565b600080604083850312156127285761272761221b565b5b600061273685828601612468565b9250506020612747858286016126fc565b9150509250929050565b60008060006060848603121561276a5761276961221b565b5b600084013567ffffffffffffffff81111561278857612787612220565b5b61279486828701612617565b935050602084013567ffffffffffffffff8111156127b5576127b4612220565b5b6127c186828701612617565b925050604084013567ffffffffffffffff8111156127e2576127e1612220565b5b6127ee86828701612617565b9150509250925092565b600067ffffffffffffffff8211156128135761281261251a565b5b61281c82612326565b9050602081019050919050565b600061283c612837846127f8565b61257a565b90508281526020810184848401111561285857612857612515565b5b6128638482856125c6565b509392505050565b600082601f8301126128805761287f612510565b5b8135612890848260208601612829565b91505092915050565b600080600080608085870312156128b3576128b261221b565b5b60006128c187828801612468565b94505060206128d287828801612468565b93505060406128e3878288016123b3565b925050606085013567ffffffffffffffff81111561290457612903612220565b5b6129108782880161286b565b91505092959194509250565b600080604083850312156129335761293261221b565b5b600061294185828601612468565b925050602061295285828601612468565b9150509250929050565b7f4e487b7100000000000000000000000000000000000000000000000000000000600052602260045260246000fd5b600060028204905060018216806129a357607f821691505b6020821081036129b6576129b561295c565b5b50919050565b7f4552433732313a20617070726f76616c20746f2063757272656e74206f776e6560008201527f7200000000000000000000000000000000000000000000000000000000000000602082015250565b6000612a186021836122eb565b9150612a23826129bc565b604082019050919050565b60006020820190508181036000830152612a4781612a0b565b9050919050565b7f4552433732313a20617070726f76652063616c6c6572206973206e6f7420746f60008201527f6b656e206f776e6572206f7220617070726f76656420666f7220616c6c000000602082015250565b6000612aaa603d836122eb565b9150612ab582612a4e565b604082019050919050565b60006020820190508181036000830152612ad981612a9d565b9050919050565b7f5472616e7366657220706f737369626c65206f6e6c7920627920636f6e74726160008201527f6374206f776e6572206f7220746f20636f6e7472616374206f776e657220627960208201527f204e4654206f776e657200000000000000000000000000000000000000000000604082015250565b6000612b62604a836122eb565b9150612b6d82612ae0565b606082019050919050565b60006020820190508181036000830152612b9181612b55565b9050919050565b60008190508160005260206000209050919050565b60006020601f8301049050919050565b600082821b905092915050565b600060088302612bfa7fffffffffffffffffffffffffffffffffffffffffffffffffffffffffffffffff82612bbd565b612c048683612bbd565b95508019841693508086168417925050509392505050565b6000819050919050565b6000612c41612c3c612c3784612392565b612c1c565b612392565b9050919050565b6000819050919050565b612c5b83612c26565b612c6f612c6782612c48565b848454612bca565b825550505050565b600090565b612c84612c77565b612c8f818484612c52565b505050565b5b81811015612cb357612ca8600082612c7c565b600181019050612c95565b5050565b601f821115612cf857612cc981612b98565b612cd284612bad565b81016020851015612ce1578190505b612cf5612ced85612bad565b830182612c94565b50505b505050565b600082821c905092915050565b6000612d1b60001984600802612cfd565b1980831691505092915050565b6000612d348383612d0a565b9150826002028217905092915050565b612d4d826122e0565b67ffffffffffffffff811115612d6657612d6561251a565b5b612d70825461298b565b612d7b828285612cb7565b600060209050601f831160018114612dae5760008415612d9c578287015190505b612da68582612d28565b865550612e0e565b601f198416612dbc86612b98565b60005b82811015612de457848901518255600182019150602085019450602081019050612dbf565b86831015612e015784890151612dfd601f891682612d0a565b8355505b6001600288020188555050505b505050505050565b7f4552433732313a20696e76616c696420746f6b656e2049440000000000000000600082015250565b6000612e4c6018836122eb565b9150612e5782612e16565b602082019050919050565b60006020820190508181036000830152612e7b81612e3f565b9050919050565b7f53696e676c6520616464726573732063616e20686176652031204e4654000000600082015250565b6000612eb8601d836122eb565b9150612ec382612e82565b602082019050919050565b60006020820190508181036000830152612ee781612eab565b9050919050565b7f4e487b7100000000000000000000000000000000000000000000000000000000600052601160045260246000fd5b6000612f2882612392565b91507fffffffffffffffffffffffffffffffffffffffffffffffffffffffffffffffff8203612f5a57612f59612eee565b5b600182019050919050565b7f4552433732313a2061646472657373207a65726f206973206e6f74206120766160008201527f6c6964206f776e65720000000000000000000000000000000000000000000000602082015250565b6000612fc16029836122eb565b9150612fcc82612f65565b604082019050919050565b60006020820190508181036000830152612ff081612fb4565b9050919050565b7f496e697469616c697a61626c653a20636f6e747261637420697320616c72656160008201527f647920696e697469616c697a6564000000000000000000000000000000000000602082015250565b6000613053602e836122eb565b915061305e82612ff7565b604082019050919050565b6000602082019050818103600083015261308281613046565b9050919050565b6000819050919050565b600060ff82169050919050565b60006130bb6130b66130b184613089565b612c1c565b613093565b9050919050565b6130cb816130a0565b82525050565b60006020820190506130e660008301846130c2565b92915050565b600081905092915050565b6000613102826122e0565b61310c81856130ec565b935061311c8185602086016122fc565b80840191505092915050565b600061313482856130f7565b915061314082846130f7565b91508190509392505050565b7f4f776e61626c653a206e6577206f776e657220697320746865207a65726f206160008201527f6464726573730000000000000000000000000000000000000000000000000000602082015250565b60006131a86026836122eb565b91506131b38261314c565b604082019050919050565b600060208201905081810360008301526131d78161319b565b9050919050565b7f4552433732313a207472616e736665722066726f6d20696e636f72726563742060008201527f6f776e6572000000000000000000000000000000000000000000000000000000602082015250565b600061323a6025836122eb565b9150613245826131de565b604082019050919050565b600060208201905081810360008301526132698161322d565b9050919050565b7f4552433732313a207472616e7366657220746f20746865207a65726f2061646460008201527f7265737300000000000000000000000000000000000000000000000000000000602082015250565b60006132cc6024836122eb565b91506132d782613270565b604082019050919050565b600060208201905081810360008301526132fb816132bf565b9050919050565b600061330d82612392565b9150600082036133205761331f612eee565b5b600182039050919050565b7f4f776e61626c653a2063616c6c6572206973206e6f7420746865206f776e6572600082015250565b60006133616020836122eb565b915061336c8261332b565b602082019050919050565b6000602082019050818103600083015261339081613354565b9050919050565b7f4552433732313a20617070726f766520746f2063616c6c657200000000000000600082015250565b60006133cd6019836122eb565b91506133d882613397565b602082019050919050565b600060208201905081810360008301526133fc816133c0565b9050919050565b7f496e697469616c697a61626c653a20636f6e7472616374206973206e6f74206960008201527f6e697469616c697a696e67000000000000000000000000000000000000000000602082015250565b600061345f602b836122eb565b915061346a82613403565b604082019050919050565b6000602082019050818103600083015261348e81613452565b9050919050565b7f4552433732313a207472616e7366657220746f206e6f6e20455243373231526560008201527f63656976657220696d706c656d656e7465720000000000000000000000000000602082015250565b60006134f16032836122eb565b91506134fc82613495565b604082019050919050565b60006020820190508181036000830152613520816134e4565b9050919050565b7f4e487b7100000000000000000000000000000000000000000000000000000000600052601260045260246000fd5b600061356182612392565b915061356c83612392565b925082820390508181111561358457613583612eee565b5b92915050565b600061359582612392565b91506135a083612392565b92508282019050808211156135b8576135b7612eee565b5b92915050565b600081519050919050565b600082825260208201905092915050565b60006135e5826135be565b6135ef81856135c9565b93506135ff8185602086016122fc565b61360881612326565b840191505092915050565b60006080820190506136286000830187612427565b6136356020830186612427565b61364260408301856126bb565b818103606083015261365481846135da565b905095945050505050565b60008151905061366e81612251565b92915050565b60006020828403121561368a5761368961221b565b5b60006136988482850161365f565b91505092915050565b7f4552433732313a206d696e7420746f20746865207a65726f2061646472657373600082015250565b60006136d76020836122eb565b91506136e2826136a1565b602082019050919050565b60006020820190508181036000830152613706816136ca565b9050919050565b7f4552433732313a20746f6b656e20616c7265616479206d696e74656400000000600082015250565b6000613743601c836122eb565b915061374e8261370d565b602082019050919050565b6000602082019050818103600083015261377281613736565b905091905056fea2646970667358221220d1896570e4da337ee2d1d4e4a7bd9cb338b0514a2f675701f7f5a50610a60f2564736f6c63430008110033",
  "linkReferences": {},
  "deployedLinkReferences": {}
}